:020000040800F2
:10000000000B002091A90108A1A90108A3A90108DA
:10001000A5A90108A7A90108A9A9010800000000D5
:10002000000000000000000000000000B9A9010865
:10003000ABA9010800000000BDA901082DA9010815
:10004000C1A90108C5A90108C9A90108E9A50108B4
:10005000CDA90108D1A90108D5A90108D9A901088C
:10006000DDA90108E1A9010817F30008E5A90108C5
:10007000E9A90108EDA90108F1A90108F5A90108FC
:10008000F9A90108A1D90008FDA901080000000094
:1000900000000000000000000000000079F30008EC
:1000A00001AA010805AA010809AA01080DAA010868
:1000B000C9EE0008C1EF00088DF0000817A3010881
:1000C000E5A2010811AA010815AA010819AA010848
:1000D00011A701080FD9000813D90008000000007B
:1000E00039F300081DAA010821AA01080000000038
:1000F00000000000000000000000000091DA00088D
:100100000000000025AA01082FA6010829AA01085D
:1001100000000000000000000000000000000000DF
:100120002DAA010831AA010895DA000835AA0108AC
:1001300039AA0108000000000000000000000000D3
:100140000000000000000000000000003DAA0108BF
:1001500099DA0008A5D90008A9D9000817D900081C
:1001600041AA010845AA01080000000000000000A3
:10017000000000000000000000000000000000007F
:100180000000000049AA0108000000000000000073
:080190004DAA010851AA010863
:1080000010B5040008D184220FF214010FF2C4004D
:1080100004F0ECFCC046C0462068BDE810400047B4
:10802000433A5C52454C4541534520434F44455CDF
:1080300049434D32303634385C6E75636C656F5C25
:1080400049434D32303934385F654D445F6E756356
:108050006C656F5F312E305C696E766E5C6669723E
:108060006D776172655C656D642D6D63755C6E75B1
:10807000636C656F5C69636D32303934385C69619B
:10808000722D636D342D6670755C312E302E305C30
:10809000736F75726365735C6578616D706C657321
:1080A0005C6578616D706C652D69636D3230393453
:1080B000382F2E2E2F2E2E5C496E766E2F4465762D
:1080C000696365732F486F737453657269662E68B0
:1080D00000000000696E7374616E6365000000004B
:1080E00038B504460D46002C02D06068002808D13F
:1080F00073220FF208410FF2B44004F077FCC0463F
:10810000C04660680268100004D029462068BDE8B7
:10811000384010476FF0010032BD10B5040002D0A6
:108120006068002808D188220FF2D0310FF27C401D
:1081300004F05CFCC046C04660684168080003D09B
:108140002068BDE8104008476FF0010010BD10B571
:10815000040002D06068002808D19E220FF29C31F2
:108160000FF2484004F042FCC046C0466068816897
:10817000080003D02068BDE8104008476FF00100F8
:1081800010BD10B5040002D06068002808D1AF22ED
:108190000FF268310FF2144004F028FCC046C046CC
:1081A0006068C168080003D02068BDE81040084737
:1081B0006FF0010010BD10B5040002D06068002807
:1081C00008D1C9220FF234310FF2E03004F00EFC76
:1081D000C046C04660684169080003D02068BDE819
:1081E000104008476FF0010010BDF0B583B00446A1
:1081F0000D4616461F46002C02D06068002808D1A4
:10820000E6220FF2F8210FF2A43004F0EFFBC04693
:10821000C0466068D0F810C06046002809D00998B0
:108220000190089800903B46324629462068E04776
:10823000FEBD6FF00100FEBD38B504460D46002CB2
:1082400002D06068002809D140F221120FF2AC215F
:108250000FF2583004F0CAFBC046C0466068026A9C
:10826000100004D029462068BDE8384010476FF060
:10827000010032BD38B504460D46002C02D06068BE
:10828000002809D140F251120FF270210FF21C3078
:1082900004F0ACFBC046C0466068836A180006D094
:1082A00001222946206801B0BDE8304018476FF030
:1082B000010032BD38B504460D46002C02D060687E
:1082C000002809D14FF4B3720FF230210FF2DC20F5
:1082D00004F08CFBC046C0466068836A180006D074
:1082E00000222946206801B0BDE8304018476FF0F1
:1082F000010032BD70B504460D461646002C02D072
:108300006068002809D140F27F120FF2F0110FF2DD
:108310009C2004F06BFBC046C0466068C36A18002E
:1083200005D0324629462068BDE8704018476FF0F6
:10833000010070BD70B504460D461646002C02D0F3
:108340006068002809D14FF4D5720FF2B0110FF216
:108350005C2004F04BFBC046C0466068036B18000D
:1083600005D0324629462068BDE8704018476FF0B6
:10837000010070BD70B504460D461646002C02D0B3
:108380006068002809D140F22D220FF270110FF21F
:108390001C2004F02BFBC046C046002001E0401C1E
:1083A000C0B2092814DA06EB800191ED000ADFED76
:1083B0008C0AB4EE600AF1EE10FA06DAFFEE000A5B
:1083C000B4EE600AF1EE10FAE9D56FF00A0070BD64
:1083D0006068036C180005D0324629462068BDE865
:1083E000704018476FF0010070BD70B504460D462F
:1083F0001646002C02D06068002809D140F24E22B7
:108400000FF2F8010FF2A41004F0F0FAC046C046D3
:108410006068436C180005D0324629462068BDE8E4
:10842000704018476FF0010070BD38B504460D4626
:10843000002C02D06068002809D14FF41A720FF2A4
:10844000BC010FF2681004F0D1FAC046C046606863
:108450008269100004D029462068BDE838401047E2
:108460006FF0010032BDF8B504460D4616461F46B2
:10847000002C02D06068002809D140F289220FF256
:108480007C010FF2281004F0B1FAC046C0466068C3
:10849000D0F848C06046002807D0069800903B46B8
:1084A000324629462068E047F2BD6FF00100F2BD78
:1084B000F8B504460D4616461F46002C02D06068EB
:1084C000002809D140F2AA220FF230010FF2DC009D
:1084D00004F08CFAC046C0466068D0F84CC06046D4
:1084E000002807D0069800903B463246294620686F
:1084F000E047F2BD6FF00100F2BD0000433A5C526C
:10850000454C4541534520434F44455C49434D321A
:10851000303634385C6E75636C656F5C49434D3240
:10852000303934385F654D445F6E75636C656F5FDD
:10853000312E305C696E766E5C6669726D77617241
:10854000655C656D642D6D63755C6E75636C656FE0
:108550005C69636D32303934385C6961722D636DEA
:10856000342D6670755C312E302E305C736F7572F1
:108570006365735C6578616D706C65735C6578616B
:108580006D706C652D69636D32303934382F2E2E45
:108590002F2E2E5C496E766E2F4465766963657367
:1085A0002F4465766963652E680000006465762057
:1085B0002626206465762D3E76740000002800D1C2
:1085C0000020704710B504F09EFA044604F09DFAAE
:1085D000DFF8681A2160DFF8681A016010BD00003A
:1085E0000100803F2DE9F0438DB00025FF208DF87C
:1085F00008004FF4407004F093FAFFF7E3FF012006
:1086000004F0EAFA01208DF80C008DF80D008DF8C9
:108610000E0028468DF80F008DF81000DFF8244A70
:1086200004F10C000590284606904FF48050ADF8F8
:108630001C002846ADF81E004FF461200890284623
:1086400009900A900B900C9003A804F07FFD284637
:108650008DF80C0001208DF80D0028468DF80E00D5
:1086600001208DF80F0028468DF81000059041F28A
:108670000C00204406902846ADF81C004FF4807092
:10868000ADF81E00DFF8C0090890284609900A904E
:108690000B900C9003A804F059FD41F224202618F9
:1086A0002A460FF65D11304605F004FA2A460FF609
:1086B000590141F20C10204406F057F9DFF88C19EB
:1086C000284606F08AFB2A460FF23911032006F0ED
:1086D00055FD284606F06CFB0FF22D21052006F013
:1086E00071FEDFF86C793946032006F078FEDFF87A
:1086F0006419032006F073FE3946032006F06FFE6E
:10870000DFF85419032006F06AFE06F090FEFFF72A
:1087100077FC06F08CFE014641F2382004EB00099C
:108720000FF6B41743F2D278CDF800803B460FF233
:10873000CC02484606F03EFF4846FFF73FFF606028
:1087400002A9FFF7CDFC81469DF80820DFF80C193F
:10875000032006F044FE484600F0C7F800E001257B
:10876000002D03D19DF80800EA28F8D1012D0AD187
:108770009DF80820DFF8E818012006F030FE4FF0E1
:10878000FF3000F0B2F8DFF8DC18032006F027FE17
:108790006068FFF7DCFC00F0A8F8DFF8CC180320D5
:1087A00006F01DFE002001900120009043463A464D
:1087B00000216068FFF719FD00F097F807E000203E
:1087C00004F0A3FE0146C9B2304605F079F9002055
:1087D00004F0C1FE0028F2D120688007F7D5606858
:1087E000FFF7E9FC054600F080F8002DEFD472B6E3
:1087F000206820F00200206062B6E8E71B880008CD
:108800000000000038B50C46DFF8385800F06AF870
:10881000A8600120A040286031BD4168002900D037
:10882000704770B588B041F28835DFF8404801687C
:1088300021600021616004F1080100F02DFA03E0DD
:108840000A2000F04DF80A3D02A804F09DFE002821
:1088500001D0012DF4DA012D05DADFF81418022019
:1088600006F0BDFD3AE0DFF8DC5741F224202E1877
:108870008023029A03A9304605F08FF9002825D1FC
:1088800005A80190BDF816000090049B22463021F7
:1088900041F20C10284406F08FF9002816D103A9E4
:1088A000304605F089F9002810D1BDF8180002996A
:1088B000A1F880000299002004F0DDFE00280DD010
:1088C000DFF8B017052006F08AFD07E0DFF8A817EB
:1088D000022006F084FD02A804F077FE08B070BD07
:1088E00004F09EB9002006F0E3BA80B510F1010F44
:1088F00007D14FF0FF32DFF88417032006F06FFD39
:10890000FEE701BD000000002DE9F04186B00446FD
:108910000D461646DFF86877B84668460FF26401E0
:10892000182207F03BFB684650F8243014A24FF49D
:108930008071384607F05EFB0446FF2C1CD8334696
:108940002A46C4F58071381907F076FB0419FF2C0C
:1089500012D8D0A2C4F58071381907F04BFB041966
:10896000FF2C05D908E018F9011B012004F098FD3F
:1089700098F900000028F6D106B0BDE8F0810000AB
:1089800025730000989E01089C9E0108A49E010882
:10899000AC9E0108B49E0108BC9E0108F0B5A1B0D0
:1089A0000D4616462C681038142800F26E81DFE858
:1089B00010F02700330042006F006C01ED006C01E5
:1089C00080006C019000A000B000C2006C016C013E
:1089D0006C016C01D4001500FD002F01204607F04A
:1089E00049FB0246DFF89C16052006F0F8FC2879C2
:1089F000042803D1002004F0C2FD48E1002046E134
:108A000002A9DFF840064068FFF76AFB070001D1C2
:108A10009DF8087038463AE1204607F02BFB0246E5
:108A2000DFF86416052006F0DAFCDFF81806406867
:108A3000FFF773FB2BE1204607F01CFB0246DFF833
:108A40004C16052006F0CBFCDFF8F8456068FFF710
:108A50007EFB054641F20C1026180D2201213046FE
:108A600005F099FF04221146304605F094FF0020DE
:108A700001900120009043F2D2730FF25C6200215A
:108A80006068FFF7B2FB471903F010FF3846FEE0BD
:108A9000204607F0EFFA0246DFF8F415052006F04D
:108AA0009EFC03F048FFDFF89C054068FFF769FB78
:108AB000EDE0204607F0DEFA0246DFF8D815052083
:108AC00006F08DFC2146DFF87C054068FFF7B4FB1B
:108AD000DDE0204607F0CEFA0246DFF8BC1505209F
:108AE00006F07DFC2146DFF85C054068FFF7C2FB1D
:108AF000CDE0204607F0BEFA0246DFF8A0150520BB
:108B000006F06DFC2146DFF83C054068FFF7D2FB1C
:108B1000BDE0204607F0AEFA6B680246DFF880152C
:108B2000052006F05CFC6A682146DFF818054068FD
:108B3000FFF7E0FBABE0204607F09CFA6B680246CB
:108B4000DFF86015052006F04AFC6A682146DFF868
:108B5000F4044068FFF7EEFB99E0204607F08AFA3C
:108B60000246DFF84415052006F039FC0CAA214620
:108B7000DFF8D0044068FFF738FC0746346006F1A0
:108B800008010CA800F088F8384680E0204607F07D
:108B900071FA0246DFF81415052006F020FC214684
:108BA000DFF8A0044068FFF740FC70E0204607F0C3
:108BB00061FA0246DFF8F814052006F010FC686838
:108BC000012812D12A7A252A02D34FF0FF305EE025
:108BD00005F1090103A807F0D1F903AA2146DFF83E
:108BE00064044068FFF7C6FB51E0052804D105F195
:108BF0000901204600F02EF9287A009005F10903BA
:108C00006A682146DFF83C044068FFF72CFC3EE030
:108C1000204607F02FFA0246DFF89814052006F0E8
:108C2000DEFB4020009006F10D036A682146DFF864
:108C300014044068FFF73CFC0746012F06DB37733E
:108C40006868B06000207060346020E0002F0FD1B1
:108C5000002030736868B0604FF0FF307060002211
:108C6000402106F10D0007F071FA4FF0FF300EE0E1
:108C7000002030736868B06077600022402106F100
:108C80000D0007F063FA384601E06FF0010021B0F3
:108C9000F0BD00000D0A000038B505460C46D5E9C8
:108CA000020120602868012834D002284CD0032813
:108CB00000F0A18004283AD009282BD00A2829D016
:108CC0000B2800F084800E2860D00F2873D0102865
:108CD00047D0112800F0BB80122800F0B88013287C
:108CE00000F0AB80142872D0162800F0B08019284C
:108CF00000F0AD801A2800F0A4801C2800F0A780A6
:108D0000202800F09380212800F09080392800F07E
:108D10009B8031BD04F108031022032105F11000EE
:108D200007F066FA05F124000079606031BD04F1B6
:108D300008031022032105F1100007F059FA05F18C
:108D400024000079606031BD04F108031022032182
:108D500005F1100007F04CFA05F12400007960607D
:108D600031BD04F108031022032105F1100007F0C2
:108D70003FFA04F114031022032105F11C0007F04F
:108D800037FA05F124000079606031BD04F1080371
:108D90001022032105F1100007F02AFA04F1140350
:108DA0001022032105F11C0007F022FA05F124002E
:108DB0000079606031BD04F108031E22042105F131
:108DC000100007F015FA95F82400606031BD04F139
:108DD00008031E22042105F1100007F009FA04F12E
:108DE00018031022012105F1200007F001FA95F87F
:108DF0002400606031BD04F108031022012105F157
:108E0000100007F0F5F904F10C031022012105F11F
:108E1000140007F0EDF904F110031022012105F10F
:108E2000180007F0E5F9287F606031BD2869A0606F
:108E30006869E060A869206131BDD5E90401A060DE
:108E400031BD2869207231BD2869207231BD286981
:108E5000207231BD80B502460020012A25D10422AE
:108E6000684607F08BF80098022806D004280AD03C
:108E700008280ED0102812D042E00E2201218E4880
:108E800005F089FD02BD0D2201218B4805F083FD0F
:108E900002BD0C220121884805F07DFD02BD0B2298
:108EA0000121854805F077FD02BD042A2AD104225C
:108EB000684607F063F80098FA2809D0B0F5FA7F01
:108EC0000CD0B0F57A7F0FD0B0F5FA6F12D017E062
:108ED00007220421784805F05EFD02BD0622042128
:108EE000754805F058FD02BD05220421724805F0C1
:108EF00052FD02BD042211466F4805F04CFD02BD33
:108F00004FF0FF3002BD00002DE9F04186B00C4665
:108F1000114641F2883600286AD1684D2A4620461B
:108F2000FFF73CFD01462246162A14D0212A0CD117
:108F30002A1D11600321516000280CD00022482115
:108F400005F10C0007F080F905E0696003E00A20F4
:108F5000FFF7C6FC0A3E05F18407384604F014FB0F
:108F6000002801D0012EF2DA012E04DA5449022041
:108F700006F035FA40E0334E41F2242006EB0008BB
:108F80008023D5F8842002A9404604F006FE00287C
:108F900026D104A80190BDF812000090039B2A4638
:108FA000214641F20C10304405F067FD002817D12E
:108FB00002A9404604F000FE002811D1BDF81400BB
:108FC000D5F88410A1F88000D5F88410002004F0B2
:108FD00052FB002810D03B49052006F000FA0BE0B8
:108FE0003949022006F0FBF9384604F0EEFA03E0B6
:108FF0003649022006F0F3F906B0BDE8F081000022
:1090000002B5002802D0022807D001BD0A46304927
:109010000120BDE8084006F0E2B99DF8001026489E
:1090200005F0CBFC002808D503469DF8002029490F
:109030000520BDE8005006F0D2B901BD004000088F
:10904000FF7F00087095002080841E0040420F00C2
:10905000109D0108349D0108589D0108749D010868
:10906000849D0108C09D0108D89D0108FCD70020FF
:10907000E89D01082C9E01085C9E01088C9E010859
:1090800074D60020C49E0108F89E0108289F01089C
:10909000589F0108889F0108B49F0108E49F0108B8
:1090A00010A001084CA0010888A00108C0A0010878
:1090B000F4A001082CA101087CA6002074D7002090
:1090C00064A10108BCA10108FCA101083CA201089F
:1090D00074A20108B4A20108000100000000000011
:1090E0000000000000000000000500000005000076
:1090F00000050001000500FFFFF700050005000561
:1091000000050005000500058000800040004000CB
:1091100020002000100010000800080004000400D7
:1091200002000200010001000080008000400040B9
:1091300000200020001000100008000800040004B7
:1091400000020002000100010000038400009C40B6
:10915000000000000400000036666666000F000094
:10916000135C28F60CF5C28F000000000000000020
:1091700000000000FFF8003804F6E8F40000680082
:109180000001FFC700000000000000000147AE140E
:109190003EB851EC000F000000000000000000008D
:1091A00000000000000000000000000000000000BF
:1091B000000000000000000040000000000000006F
:1091C000000000000000000040000000000000005F
:1091D000000000000000000040000000000000004F
:1091E0000000010000010C00000000000000000071
:1091F000000000000000000000000000000000006F
:10920000155555550AAAAAAA00000000000000E161
:109210000000000100060001000000000000000046
:109220000048D1593FB72EA70200000000000000FF
:1092300000000000000000008E1700070000000082
:1092400000000000000003204000000000000000BB
:109250007FFF0000000521E9400000000000000041
:109260000000000000000000003E0330000000008D
:1092700000000000000000000000000200000000EC
:1092800000000000000000000000000000000000DE
:1092900000000000000000000000000000000000CE
:1092A00000000000000000000000000000000000BE
:1092B000000000006000000000000000000000004E
:1092C000000000000000000000000000000000009E
:1092D000000000000000000000000000000000008E
:1092E000400000000000000000000000000000003E
:1092F000000000000000000000000000000000016D
:109300000003000A012B4AEE0654AD11E3075C1579
:10931000362BD026D08C49A40654AD111E0BB55562
:1093200038EE175031363F03000000000000000007
:10933000000000000000000000000000000000002D
:10934000000000000000000000000001000000001C
:10935000000000010000800000000000000000008C
:1093600000070000000E357500000000000000003E
:10937000000700100096003C000000000000000004
:1093800000000000000000000D72AA29C93D6C4ECB
:1093900055164C7FC4427497000000000000000086
:1093A00000000000000000000000000010000000AD
:1093B00000000000000000080000000000000000A5
:1093C0000000000000000000000000100000003D50
:1093D000000000000000000000000000000000008D
:1093E0000020318815E3A3400000000000000000C9
:1093F00000000000000000000E704B8CC50A92BEF9
:109400005A9691D2C1EEE70D000000000000000066
:10941000000000000007000200000014002D000002
:10942000000000000000000000000000000000003C
:10943000000000000000000000000000000000002C
:109440000000000000000000000000A30000000277
:109450000000003A03E800000000000000000000E7
:1094600000000000000000000000000000000000FC
:1094700000000026000000020000000000000000C4
:1094800000000000000000000000000000000000DC
:10949000000000033FC1A76840000000000000007A
:1094A00000000000000000000000000000000000BC
:1094B000333333330CCCCCCD00FFFF000000000071
:1094C000000000000000011800000000FFFFFFFF87
:1094D00000008000200000000000000000000000EC
:1094E000000000000000000000000001000000007B
:1094F0000000000000000003000000000000000069
:10950000100000006487ED51000000000000000022
:1095100000000000000000640000000000000000E7
:1095200040000000011DF46A00000000000000007F
:109530000000000000000000000200000008000021
:1095400000007FFF0000200000009C400CCCCCCD30
:109550000000078000020000000000000000000082
:109560003EB851EC0147AE140000015E000000005F
:10957000600000000000000000008000000000000B
:109580000000800000100000000061A80000001032
:1095900000000100000010000001000004000000B5
:1095A0000040000000040000000000000000200057
:1095B00000002EE000064000000000010000000056
:1095C0000000000000000000020000000000000099
:1095D000000000000000000000000000000000008B
:1095E000400000000000000103FFFFFF000000003A
:1095F000000000000000000033333333000000009F
:1096000000000000000000000CCCCCCD00000000E9
:1096100000000000000000000000009D00000000AD
:109620000000000000000000000100000001000038
:109630000000000000000007000000000000000023
:10964000000000000000000000000000000000001A
:109650000000000000000000000000010000000009
:109660000000000000000000003200000032000096
:109670000032000000320000000000000000000086
:1096800000000000000000000000000000000000DA
:1096900000000000000000000000000000000000CA
:1096A00000000000000000000000000000000000BA
:1096B00000000000000000000000000000000000AA
:1096C0000000000000000000003200000032000036
:1096D0000032000000320000000000000000000026
:1096E000000000000000000000000000000000007A
:1096F000000000000000000000000000000000006A
:109700000000000000000000000000100000000049
:109710000000000001491B7500000010000000005F
:109720000000064000000CCD000100000000000019
:109730000000000000000000000000000000000029
:1097400000000000000000000000500000000001C8
:1097500000001600000000460001000000000000AC
:1097600000000000000000000001000000000000F8
:1097700000000000000000000000000000000000E9
:1097800000000000000000000080000000800000D9
:1097900000800000008000000000000000000000C9
:1097A00000000000000000000000000000000000B9
:1097B00000000000000000000000000000000000A9
:1097C0000000000000000000000000000000000099
:1097D0000000000000000000000000000000000089
:1097E0000000000000000000000000000000000079
:1097F0000000000000010001000000000000000067
:10980000000000000001D4C00000000000000002C1
:10981000008000000000013C00000000000000008B
:109820000000000000000000010000000000000037
:109830000000000000000000000000000000000028
:109840000000000000000000000000000000000018
:109850000000000000000000000000000000000008
:1098600000000000000000000000000000000000F8
:1098700000000000000000000000002800003A98EE
:10988000000002000000014E000000000000000087
:1098900000000000000000000000000000000000C8
:1098A00000000000000004000000000000000000B4
:1098B00000000000000000000000000000000000A8
:1098C0000147AE144E400000000000000000000000
:1098D0000000000C0000200000000000000000005C
:1098E0000000000000000000000100000000000077
:1098F0000000000000000D06000000000000000055
:109900000000000000000000000000000000000057
:109910000000000000000000000000010000000046
:109920001000000000002710000000004A40200046
:1099300000000000000000000000000000000ED841
:1099400000000118000007D0000000000000000027
:109950000000000000000000000000000000000007
:1099600000000000000027100000000000000000C0
:10997000000000000006131B000BB800003CBF0FE6
:109980000055CE750000271005B05B053A4FA4FACC
:1099900000000000000000000000000000000000C7
:1099A0000000003C0000003C000000000000005AE5
:1099B000001D208A006193690000013C00004DF009
:1099C0000055CE750000027606666666399999994B
:1099D0001000000030000000000000000CCCCCCCD7
:1099E00033333333000E90450000000001D41D4195
:1099F0003E2BE2BF3FF16FBB000000000000000003
:109A0000039387000124924900000000000013889E
:109A10000098968008583B002000000000000EAF20
:109A2000000017700000000120000000000000503E
:109A30000000000000000001000000000000000025
:109A40000000000000000000000000000000000016
:109A500000400000000400003F8000000080000083
:109A600000333333001CFA770C6D39E6CB6FDAA67E
:109A700053CFD397C4537446000000000000000089
:109A800000000000000000000000000000000000D6
:109A900000000000000000000000000000000000C6
:109AA00000000000000000000000000000000000B6
:109AB00000000000000000000000000000000000A6
:109AC0000000000000000000000000000000000096
:109AD0000000000000000000000000000000000086
:109AE00000DA740E3F258BF2000000000000000039
:109AF0000000000000000000200000000000000046
:109B00000000000000000000000000000000000055
:109B10000000000000000000000000000000000045
:109B20000000000100001D4C0000000000000000CB
:109B300038000000080000000000000000000000E5
:109B40000000000000000000200000003E2BE2BFEB
:109B50003E147AE230000000000000000000000027
:109B600000001388000007D0000000000000000083
:109B700000000000000000000000000000000000E5
:109B8000000013883C23EC842000000001D41D4118
:109B900001EB851E1000000000000001000013888A
:109BA00000000000346CFCB2000000000000000067
:109BB00000000000000000000000000000000000A5
:109BC0000000000000000000000000000000000095
:109BD0000000000000000000000000000000000085
:109BE0000000000000000010000017700000138843
:109BF00000002328000000260000002F00000000C5
:109C000040000000000009C4000000000000002324
:109C100001EB851E3E147AE2000000000000002DDA
:109C2000022222223DDDDDDE0000000000000000F7
:109C3000000024B83DD1BA8E0000000000000000F2
:109C40000000000000000000000000000000000014
:109C5000000083D6000083D6000000000000000052
:109C60000000000E00000021002000000030FCF980
:109C700040000000000A800000800000000000009A
:109C800000000000000000000000000000000000D4
:109C900000000000000000000000000000000000C4
:109CA00000000000000000000000000000000000B4
:109CB000000000020000000A000000000000000098
:109CC00000333333000C00000000000000000000EF
:109CD00000203188000700000000000000000000A4
:109CE00000000000F0DE9AF8000000000000000014
:109CF000000000000F90B283000000000000000090
:109D0000000000000800000000000000000000004B
:109D100000000000F7218CD50000000000000000CA
:109D2000000000000C6F39950000000000000000EA
:109D30000000000000000000000000000000000023
:109D400000000000000000004000000000000000D3
:109D500000000000000000004000000000000000C3
:109D600000000000000000004000000000000000B3
:109D700000000000000000000000000000000000E3
:109D800000000000000000000000000000000000D3
:109D900000000000000000000000000000000000C3
:109DA00000000000000000000000000000000000B3
:109DB000000000000000080000534400005344006D
:109DC000019A0000019A00000000054600000546C7
:109DD00000000015000000190000025800000258A1
:109DE0000000001200000003000000320000009696
:109DF0000000012C0000009600CF50A400CF50A41A
:109E00000135D0A40135D0A40000000000000000FE
:109E10000002800000018000000C8000000C800027
:109E20000000000000008000000C80000000000026
:109E30000000000000000000000000000000000022
:109E40000000000000000000000000000000000012
:109E500000000000040000004000000000000000BE
:109E60000000000000000000017BAB50012DB6484F
:109E7000000016AC002282600000118B044CCCB0B4
:109E800000000014000016810278FEE003943AB04E
:109E90000010B4900000032A000025F60000000026
:109EA00000000000200010000852DF89058C950694
:109EB0000163254160000000000000000000000078
:109EC0000000000000000000007B476902E5DBAEF7
:109ED00006F1857807DFAB88000000000000000075
:109EE0000000000000000000000000000000000072
:109EF0000000000000000000000000000000000062
:109F00000000000000000000000000000000000051
:109F10000000000000000000000000000000000041
:109F20000000000000000000000000000000000031
:109F30000000000000000000000000000000000021
:109F40000000000000000000000000000000000011
:109F50000000000A000000000000000002000000F5
:109F60000000FE4C000000000000000000000000A7
:109F700000000003086666660000000000000000A4
:109F80000399999A00666666000001F400000001DA
:109F90000000000A0000001E020000000000000097
:109FA000066666660004D45E00000000000000043F
:109FB000000000280000001E00000000000000005B
:109FC000006666660000000000000002000000005D
:109FD000000000960000000000000000FFFFFFF8F6
:109FE0000000000000000000000000000000000071
:109FF0000000000000000000000000000000000061
:10A000000000000000000000000000000000000050
:10A010000000000000000000000000000000000040
:10A020000000000000000000000000000000000030
:10A030000000000000000000000000000000000020
:10A040000000000000000000D8DCB8B0B4F3AAF8AB
:10A05000F9D1D9889AF8F73ED8F38A9AA731D1D99D
:10A06000F41036D8F39F39F9D1D9F41036D8F38FDC
:10A070009F0897608A21D1D9F41036DAF1FFD8F120
:10A08000BEBEBCBCBDBDBAB2B6A080903218BEBECA
:10A09000BCBCBDBDB8B0B4A4DFA5DEF3A8DED0DF84
:10A0A000A4849F24F2A9F8F9D1DADEA8DEDFDFDF8D
:10A0B000D8F4B18DF3A8D0B0B48FF4B9AFD0C7BE87
:10A0C000BEB8AED0F39F75B286F4BEBEB9AFD0C3F2
:10A0D000F1BEB8B0A3DEDFDFDFF2A381C080CDC761
:10A0E000CFBCBDB4A38893F1626E767E8893BEA286
:10A0F00042A04E565EBEB9AC8D20B8BEBEBCA28694
:10A100009D08FD0FBCBCBCA3829301A9839E0E16C3
:10A110001EBEBEBEBCA58B992C547CBCBC8593BA1C
:10A12000A52D557DB8A59D2CFD364CFD366CFD3614
:10A13000F5A5859F345474BDBDBDB1B6BA8395A550
:10A14000F10E161EB2A785952AF050788793F1017B
:10A15000DAA5DFDFDFD8A4DFDFDFB080F2A4C3CB76
:10A16000C5F1B18E94A40E161EB286BEA02C343C4E
:10A17000BDBDB496B8A12C343CBDBDB694BEA62CD2
:10A18000FD3534FD353CFD35BCB28E94B8BEBEA65F
:10A190002D557DBAA42D557DB8B0B4A68F962E3618
:10A1A0003EBCBCBCBDA6869FF5345474BCBEF190C9
:10A1B000FCC300D9F411D4D8F3A0DFF1BC8691A977
:10A1C0002D557DBCBCBCA98090FC510010FC5100F9
:10A1D00010FC510010FCC104D9F2A0DFF411D4D856
:10A1E000F6A0FA809038F3DEDAF8F411D4D8F1BD95
:10A1F00095FCC104D9BDBDBDF411D4D8F6BCBCBC1E
:10A20000BDBDBEBEBEB5A784921AF8F9D1DB84935A
:10A21000F76AB68796F309FFDABCBDBED8F1BCBCBD
:10A22000BCF6B082B497B8A902F702F1BC8999A72D
:10A2300004FD37A8DF8798A7FC3D0050F8F9D1D975
:10A24000A8DFF9D8F6BCBCBCBDBDBDBEBEBEB7A7BD
:10A25000819A0BB4879F1AF8F9D1BB81AAC1D9F4AE
:10A26000123CD8F6B8A71AF9D9F4123CD88AF3BB35
:10A27000AAC0C3B3AA8A9D1AFD1EB79A08B8B0B483
:10A28000A5859D00D8F3B9B2A980CDF2C4C5BAF3B3
:10A29000A0D0DEB1B4F7A7899172899147B6974AE9
:10A2A000B9F2A9D0FAF9D1D9F4126AD8F3BAA7F958
:10A2B000DBFBD9F1B9B081A9C3F2C5F3BAA0D0F8DC
:10A2C000D8F1B189A7DFDFDFF2A7C3CBC5F1B28731
:10A2D000B8BEBEBEABC2C5C7BEB5B997A522F048D1
:10A2E000703C98406834589960F1BCB38E95AA25AB
:10A2F0004D75BCBCBCB8B0B4A7889FF75AF9DAF367
:10A30000A8F8889DD07CD8F7A7889F52F9DAF3A8DF
:10A31000889CD0DF606870789D606870789E7078E7
:10A320009F70D8F7A7889F42F9BAA0D0F3D9DED89A
:10A33000F8F9D1B8DAA8889ED064689F60D8A8845C
:10A3400098D0F77EF1B2B6BA8591A7F4759DF475F1
:10A35000B5F18491A7F4759DF0A2870D2059701571
:10A36000384069A4F162F0193148B8B1B4F1A6805F
:10A37000C6F4B081F3A7C6B18F97F702F9DAF413E8
:10A3800074D8B0F7A7889F52F9D9F4136DD8F1B2F9
:10A39000B6A682922AF050FD08F1A7849402FD0827
:10A3A000B0B4869700B1BAA78161D9F4138CD8F103
:10A3B00041DAF4138CD8F1B8B2A682C0D8F1B0B6A5
:10A3C0008692A716FD040FFD04BA8791A7F475AB1A
:10A3D000B2F475B5D8F1BEBEBEBDBDBDB2BA84A7DC
:10A3E000C3C5C7B2BCBCBCB68791AFF4759DA08F86
:10A3F000F10BF02059701538406964193148F1802B
:10A4000090AF6EFD0467FD048F91A7F475ABF475F2
:10A41000B5F1BEBCBDF7BEB0B4BA889EA36A9F6654
:10A42000F0B1B5B98A9AA22C5078B2B98AAFC0C33C
:10A43000C5C789ADD0C4C783A1C2C5BABCBCBCB2B4
:10A4400081A2C0C3C5C7BCBCBDF47491F3BAA3FA62
:10A45000F9D1D9F41428D874A2BEBEBEBAB182A371
:10A46000D0C7A9D08DC4C7A381C1C3F3A68DC2BE76
:10A47000D8F1BEBEBEBAB1AA8FC0C3C5C7BEBCBCF0
:10A48000BCB2B988AFC0C3C5C780ADD0C0C389A1B5
:10A49000C0C3BA81A2C0C3C5C7BCF47491F3BAA348
:10A4A000F8F9D1D9F41479D874A2BEBEBEB8B1827D
:10A4B000A7D0C7BAA08DC4C7A981C0C3F3A58DC258
:10A4C000BED8F1BEBEBEBAB1A88FC0C3C5C7BEF369
:10A4D000BAB2B6A3839308F9D9F414F7D8F0B8B098
:10A4E000A3859404285078F1B4849369D9B6A58DD6
:10A4F00094202C343CB4A4DEDFF8F414C1D8F1A4C9
:10A50000F8A3849441D9A4DFF8D8F194FCC104D90C
:10A51000A4FBA386C0B1829E06FD1EA6819642932F
:10A52000F068B0A3F1839601F5839300A68696F0B8
:10A53000348318F1A18D68A3819BDB198BA1C6D848
:10A54000F1BEBEBEBCBCBCBDBDBDD8F7B8B4B0A7E3
:10A550009D8872F9BCBDBED9F41796D8F2B8ADF893
:10A56000F9D1DADEBAA1DEAEDEF8D8B281BEBEB96C
:10A57000AFD0C1BCBCBDBDB1B4F1AC8C920A18B5B2
:10A58000AF8C9D41DB9C118EADC0BEBEBAAEC3C5C3
:10A59000C78DA8C6C7C7C7A6DEDFDFDFA5D0DEDF51
:10A5A000BEBED8B9ACDFAF8D9C11D98CC5DAC1D88D
:10A5B000AF8F21F59F00F18C9C45D98FACC1D8F2AB
:10A5C000AFDFF8F8DFF8F8F8AF8F9F59D1DBF18CE7
:10A5D0009C31F28FAFD0C3D8AF8F9F39D1DBF18CD4
:10A5E0009C69F28FAFD0C5D88FBEBEBAA1C6BCBC25
:10A5F000BDBDF2B1B5B9AEF9DAF41769D8F28EC2C1
:10A60000F1B2809AF5AF24D9F41769D8F544D9F49A
:10A610001769D8F564D9F41769D8F1B1B68B90AF42
:10A620002D557DB58C9FAD0E161E8B9DAB2C547C8D
:10A630008D9FAA2E567E8A9CAA2C547C9BAC2646C3
:10A6400066AF8D9D009C0DDB118F19F41609D8178C
:10A6500069D8F1B281B690AF2D557DB18FB59FAF5E
:10A66000F52C547CF1B28C9FAD6DDB7179F416370B
:10A67000D8F3BAA1DEF8F180A1C3C5C7F41646D855
:10A68000F3B6BA91FCC028DAA1F8D9F41769D8F367
:10A69000B9AEF8F9D1D9F8F41769D8F1BAB1B5A0C3
:10A6A0008B933E5E7EAB83C0C5B2B6A387C0C3C5E5
:10A6B000C7A288C0C3C5C7A486C0C3C5C7A585C473
:10A6C000C7AC8DC0BEBEBCBCBDBDB9B1B5ADD0DEE2
:10A6D000AF8C9C41D9F416B5D8F1F8F9D1D9F4165C
:10A6E000CED8F1AF8D9C31DA8CC5D9C3D8AF8F21CC
:10A6F000F59F00F1ADD0B0829F02F416CED8F1AF35
:10A700008D9C31D98CC5DAC3D8AF8F21F59F00F16C
:10A71000ADD0B0839F02D8F1B18CADC1BEBEBDBD7E
:10A72000BAB6AC8D9C40BCBCB2A0DEF8F8F8F8F824
:10A73000FD0FF5AF8898002C547CF1AF809F01DBB2
:10A74000091119F41708D8F2A1F8F9D1DAF1ACDE41
:10A75000D8F3AEDEF8F41A83D8F1A783C0C3C5C717
:10A76000A882C0C3C5C7A684C0C3C5C7A585D0C0BD
:10A77000C38D9DAF39D9F41769D8F183B59EAE3436
:10A78000FD0A54FD0A74FD0AF2A1DEF8F8F8F1BEE4
:10A79000BEBCBCBDBDB9B1B58CADC0AF9C11D9AE0E
:10A7A000C0BCBCB28EC3C5C7BCBCD8BEBEBCBCBDE1
:10A7B000BDD8F2BAB2B5AF819701D1B9A7C0DAF46A
:10A7C0001781D8F2BAAEF8F9D1DAF3BEBEBEBCBC7E
:10A7D000BCBDBDBDB8B0B4A5859C08BEBCBDD8F796
:10A7E000BCBCBCBDBDBDBBB4B0AF9E8862F9BCBD36
:10A7F000D9F419DCD8F1BCBCBCB185BAB5A09806B7
:10A800002646BCB9B3B6F1AF81902D557DB1B5AF39
:10A810008F9FF52C547CF1BBAF869F69DB7179DA91
:10A82000F3A0DFF8F1A1DEF2F8D8B3B7F18C9BAF5B
:10A8300019D9ACDEF3A0DFF8D8AF809069D9A0FABF
:10A84000F1B280A1C3C5C7F2A0D0DFF8F419C6D811
:10A85000F2A0D0DFF1BCBCBCB1AD8A9E264666BC7E
:10A86000B3F3A2DEF8F41A0CD8F1AA8DC1F2A1F864
:10A87000F9D1DAF41851D8F1AF8A9A218F90F510F6
:10A88000DAF41851D8F191FCC004D9F41898D8F32F
:10A89000A1DEF8A0DFF8F419C6F391FCC007D9F4E3
:10A8A0001898D8F1AFB1849C01B3B58097DBF32140
:10A8B000B9A7D9F8F41898D8F3B9A7DEF8BBF1A373
:10A8C00087C0C3C5C7A488C0C3C5C7A589C0C3C541
:10A8D000C7A686C4C7A182C3C5C7F3A1DEF419DC2D
:10A8E000D8F1BBB3B7A1F8F9D1DAF2A0D0DFF8D82C
:10A8F000F1B9B1B6A887902D557DF5B5A888982CEB
:10A90000547CF1AF869829DB3139F419DCD8F1B3E6
:10A91000B6A78A904C545CBAA081902D557DBBF2AD
:10A92000A2F8F9D1DADEF419DCD8F1BAB0AB8FC0F5
:10A93000C7B3A383C0C3C5C7A284C0C3C5C7A4850A
:10A94000C0C3C5C7A586C0C3AC8CC2F3AEDEF8F8E1
:10A95000F41A83D8F1B2BBA383C0C3C5C7A482C015
:10A96000C3C5C7A584C0C3C5C7A685C0C3AC8CC4B6
:10A97000B3B7AF859556FD0F869606FD0FF0849F01
:10A98000AF4C70FD0FF186962EFD0F849F72FD0F68
:10A99000DFAF2C547CAF8C69DB71798B9C61F4192F
:10A9A0005CDA19DCD8F1AB839128FD0554FD057CF8
:10A9B000FD05B8BDBDBDB5A38B95052D55BDB4BB7B
:10A9C000AD8E930E161EB7F3A2DEF8F8F41A0CD86B
:10A9D000F2A1F8F9D1D9F1AF8D9A01F58F90DB0092
:10A9E000F419DCDAF1AA8DC0AE8BC1C3C5A1DEA714
:10A9F00083C0C3C5C7A884C0C3C5C7A985C0C3C514
:10AA0000C7A686D0C0C3A281C3C5C7F419DCF1BBF9
:10AA1000B3A3DEDFDFDFA48CC4C5C5C5A5DEDFDFE1
:10AA2000DFA6DEDFD8F3B9AEDFBAAEDEBBA2DEBE94
:10AA3000BCB3BDB7AF8E9C01D1ACC0D9AEDED8F1EE
:10AA4000B183B9A7D0C4B8AEDEBEBEBEBBBCBCBC71
:10AA5000B3BDBDBDD8F3A2F8F9D1D9F41A81D8F5A8
:10AA6000AD8D9D2C547CF1AF49DAC3C5D9C5C3D88F
:10AA7000AF9F69D0DAC7D98FC38DAFC7D8B9A98FB7
:10AA80009FF05478F1FD0FA6B189C2B3AF8F9F2E0E
:10AA9000FD11B1B5A9899F2CF3AEDFF8F8F41C388D
:10AAA000D8F1AD869906FD10DFF8FD0FAD8D9D4CF8
:10AAB000BBB3AD8F9D2AFD0FB792FCC004D9F4182B
:10AAC00020D8FCC008D9F41987D8F1D8F3BAB2B6A7
:10AAD000AEF8F9D1D9F41C36D8F1AFDEF9FD0F800C
:10AAE000902C547CA02AF05078FD0FF1A2829C009B
:10AAF000244464A98F94F004FD0F0C30FD0F1C95C5
:10AB00002048FD0FF199C12C547CAA829902FD0FB7
:10AB10002EFD0F56FD0F7EFD0FAC839FF0042850D5
:10AB200078FD0F8C90F121F58C9C2CF1AFDEF18932
:10AB3000AF9FFCC000D9C18AC182C1D8FCC004D972
:10AB4000C38AC382C3D8FCC008D9C58AC582C5D808
:10AB5000FCC00CD9C78AC782C7D8FCC010D9F41B67
:10AB6000F0D8F18BABD0C09F2EFD0FA0DEABD09004
:10AB700065A08F9F4AFD0FAB8B9000B9A9C1F3AEC2
:10AB8000DFF8F41C38D8F1BAB1B689ABC1B2AFD096
:10AB90008B9F3EFD0F5AFD0F9FFCC000D9F18FA285
:10ABA000C6D8FCC004D98FA2C784ABD0C0AF8A9BE3
:10ABB0001EFD0F36FD0FA48F30AA9A40D89FFCC00F
:10ABC00008D98FA2D0C684ABD0C2AF8A9B1EFD0F1E
:10ABD00056FD0FA48F34AA9A4084ABD0C4AF8A9B91
:10ABE0003EFD0F56FD0FA4D08F30AA9A4CD89FFC83
:10ABF000C00CD98FA2D0C784ABD0C6AF8A9B1EFD34
:10AC00000F76FD0FA4D08F34AA9A4085ABD0C0AF89
:10AC10008A9B3EFD0F76FD0FA58F30AA9A4C85AB1F
:10AC2000D0C2AF8A9B5EFD0F76FD0FA58F34AAD0F0
:10AC30009A50D8AFF8F41AE6F1D88B9CAF2AFD0FE2
:10AC40008A9FB9AF02FD0F26FD0F46FD0F66FD0F6F
:10AC500083B59FBAA3002C547CB68292A031D9ADA3
:10AC6000C3DAADC5D88DA039DA82ADC7D8F39EFC62
:10AC7000C004D9F41710D8FCC008D9F4190BD8F1C6
:10AC8000D8F1B9B1B5A9DEF88999AF31D9F41C8CE6
:10AC9000D8F185AF29D984A9C2D885AF49D984A96B
:10ACA000C4D885AF69D984A9C6D889AF39DA8EA945
:10ACB00050F41C8CD8F189AA7CFD029A68D8F1AABC
:10ACC000FBDA8999AF26FD0F8F9525899FA912FD83
:10ACD0000FF41C75D8F39EFCC104D9F41B3DD8FCBD
:10ACE000C108D9F41A58D8F1BEBCBCBCBDF3B8B485
:10ACF000B08FA8C0F9AC8497F51AF1F8F9D1DAA8A9
:10AD0000DED895FCC103D9A8DED8BCBCF198FCC044
:10AD10001CDB95FCC003A5DEA4DED8AC889500D171
:10AD2000D9A5F8D8A4FC80048895A4FC080420F7D1
:10AD3000BCBCBDBDB5AC849FF602F8F9D1DB8493F1
:10AD4000F76AF9D9F3BCBCA8889218BCBCD8BCBCC3
:10AD5000B4A8889E08F4BEBEA1D0BCBCF7BEBEB5E8
:10AD6000AC84936AF9BDBDB4D9F2AC8C9718F68463
:10AD70009C02F8F9DBD1F1A5DFD8F7BEBEBDBDA7B7
:10AD80009D887AF9D9F41ED6D8F1BEBEACDEDFAC10
:10AD9000889FF75A56F1BCBCBDBD95FCC007DAF4DC
:10ADA0001E71D8F1FCC000DB9CFCC100F41E96D8DB
:10ADB000F1AC95FCC008DAF41DB3D8F18290792D7E
:10ADC00055F58C9C04AC2C54F1BCBCBC805DDB49BB
:10ADD00051F4BC1D91DABC1E6DD8F5869838D9F1B6
:10ADE00082902DD8ACD08698F55CD9F1829055D858
:10ADF000AC8C9C0000A5DFF8F41DBED8F182962D26
:10AE0000557D8C9C3418F1AC95F51CD9F41E6DD889
:10AE1000F1AC839045D9A0F8AC8C9C06D2A19100EE
:10AE20002C81D6F0A1D08C9C28D387D4A78C20D39A
:10AE3000F1A484902C547CD8AC839045D9F41E9610
:10AE4000D8F1AC819102FD148566FD1D884EFD1B75
:10AE500087D4FD54AD8D4EF0819CABD6FD068D316F
:10AE60008C101001010139AC8B98F508D9F41E6DD6
:10AE7000D8F1A982960195FCC100DAF41E45DBF1F8
:10AE8000AC8993F518F1A5DFF8D8F41E71D8F1A4B8
:10AE9000849534FD0654FD0674FD06A994F52C54E2
:10AEA0007CF1AC879949DB515984ABC3C5C782A6F5
:10AEB000C0F3AADFF8D8F1A5DFD8F1A0DEA1DEDF6C
:10AEC000DFDFA7DEDFA4DFDFDFA295FCC001D980D2
:10AED000C3C5C7A883C1DA86C3C5C7A883C3D8F1D1
:10AEE0009AFCC104D9AC829601F3AADEF8F8F8DB2B
:10AEF000F5AC8C9A18F3AAF9D8AC8A9A41D1AAD0A9
:10AF0000C0D9F2AC859A41DBD1BCBCBDBDBEBEF49C
:10AF10001ED6D8F3BCBCBDBDBEBEA5859C10D8F165
:10AF2000B8B0B4A7889EF77AF9D9F4200DD8F1BE4D
:10AF3000BEBEBBA2F9DABEF4200DD8F1BCBCBCB3D6
:10AF400080C6AFDED0DFBCB284BDBDBDB79FA06000
:10AF5000BCBCBCB38590AF019F468FA20E8592AF5B
:10AF6000D0299F52A50834A0FB8695AF29DAA6DE2A
:10AF7000F41F41D8F1A0FAF9DAA6DEF41F41D8F1A6
:10AF8000A6F896AF19D9A3DEF8D8F18594AF31D9D8
:10AF9000A3DEF8F880A0C5D88596AF31D9A3DEF836
:10AFA000F8F880A5C086C3D8A8DFA1DE8591AF0CD4
:10AFB0000DF58F9FAF2C54F197FCC004DB8FAF5180
:10AFC000A8DFF8D898FCC008D9F41FA9D8F1FCC0B4
:10AFD0000CD9F41FD2D8F193FCC009D9A4DEA8DEA5
:10AFE000F8F8D8FCC004D985A1C1A7DEF8D8F41FB1
:10AFF000EBD8F1A4F88291AF31DB9F719241A7DECB
:10B00000D88494AF19D9A8DEF8F8F8A3DFD893FC58
:10B01000C00AD9A8DEF8D8F41FEBD8F1A4F8A3FA37
:10B02000F9D1DB8894AF4188A1C2D893FCC00AD97A
:10B03000A8DEF8D8F191FCC004D9A7FAA3FAAFD0E2
:10B04000DFF8F8D8AFD0FAF9D1B0BCB4BDB8BEDAE9
:10B05000F3A5859D08D8F1F1A7DEF7849F6A87F1F3
:10B06000D4FD3EF9D9F4203DD8F0F7A7889F52F9D6
:10B07000D9F4203DD8F2BBA0F9DAF4203DD8F2B3E0
:10B0800080C4F475D1D8F0B1B5BA8A9AA7F02C5023
:10B0900078F2A5DEF8F8F1B5B2A7879021DBB6B15A
:10B0A000809729D9F2A5F8D8BBB2B6BEA1F8F9D1DC
:10B0B000BEBEBEBADAA5DED8A7829565D185A2D07C
:10B0C000C1D9B5A7869331DBD1F4208DD8F3B8B0C0
:10B0D000B4A5859C18D8F1BAB2B68196A1F8F9B991
:10B0E000A6DAC3C5C7D92D4D6DD8BA8AAAF8F9B961
:10B0F000AEDAC3C5C7D92D4D6DD8BA88A8F8F9A75F
:10B10000DAC3C5C7D92D4D6DD8F2B0B9A3FAF9D1BC
:10B11000DAB88FA7C0F9B58793F60AF2B4A484977A
:10B1200024A4849E3CD8F3BEBEBBAEF8F9D1BEBE0B
:10B13000B0B4B8DAA5859E00D8F1BCBCBDBD8E9E6A
:10B14000A759D1BCBCBDBDDA859EA508D8F1BCBC51
:10B150008EBEBEAED0C5BCBCBEBEF7B9B0B5A6886B
:10B16000955AF9DAF1ABF8D8B8B4F398FCC004DA20
:10B17000F4217BD8F2A9D0F8899BA751D9A9D0DEB8
:10B18000A4849E2CD8A8FA889AA729D9A8DFA484D9
:10B190009D34D8A8D0F8889AA751D9A8D0DEA48425
:10B1A0009D2CD8A8D0FA889AA779D9A8D0DFA484F2
:10B1B0009D24D8F3A9D0F8899BA751D9A9D0DEA4A2
:10B1C000849C2CD8F7A7889F52F9D9F421ABD8F1E9
:10B1D000B9A2FAF3B8A9D0FA899BA779D9A9D0DF87
:10B1E000A4849C24D8F2A8F8889AA701D9A8DEA440
:10B1F000849D3CD8F7A7889F42F9D9F421F2D8F36F
:10B20000A9F8899BA701D9A9DEA4849C3CD8A9FAF6
:10B21000899BA729D9A9DFA4849C34D8F2A9FA89EB
:10B220009BA729D9A9DFA4849E34D8A9D0FA899BE9
:10B23000A779D9A9D0DFA4849E24D8F1A7DEF2840F
:10B24000CA97A424A594F60AF78502F8F9D1D9F68D
:10B250009B02D8A7B1829562F8F9D1D9F423E7D837
:10B26000F0B085A4D0C0DDF2C0DCF6A79F02F9D90A
:10B27000F3A5DEDAF0DDF2C8DCD88595A500D98625
:10B28000F0DDF2CACCCEDCD88500D980F0DDF2CC7E
:10B29000C6CE85CACCCEDCD88500D9B189F0DDF226
:10B2A000C2CAC4DCD8B08500D981F0DDF2C6CE8236
:10B2B000C0C8DCD88500B1D986F0DDF1C2C4C6DCD7
:10B2C000D8B0F28500D9B287F0DDF1C2C4C6F2BCB5
:10B2D000B081C0DCBCBCBCD8B08500B1D98FF0DD7A
:10B2E000F2C2C4C6DCD8B08500D9B18EF0DDF1C29F
:10B2F000C4C6F2BCB081C0DCBCBCBCD8B08500D92F
:10B3000082F0DDF2C2CAC4DCD88500D8F28500D94B
:10B31000B18AF0DDF1C2C4C6DCD8B0F28500D9B183
:10B32000F0DDF182C4DCD8B0F3A5F8F9D1D9F4236B
:10B3300069D8F38595A50000D9BEF2BAAEDEBEBECF
:10B34000BEBCB281F0DDF3C8DCBCBCBCD8B0B885F3
:10B35000A500D9F2BEBEAADEBEBEBCBC8AF0DDF33B
:10B36000C0DCBCBCD885A500D9B9F2A3D0DEB285BB
:10B37000F0DDF3C8DCD8B085B8A500D9B38AF0DD1C
:10B38000F3C0DCD8B08500D98FF0DDF3C4DCD885FC
:10B39000000000D9BCBCB38EF0DDF3C0F1C2DCBC50
:10B3A000BCD8F3B08500D9BCBC8EF0DDF3C4DCBCE6
:10B3B000BCD8F3B08EF4B8A7D0C0D887F3B9A2C672
:10B3C000A6C4F7B58E9606F8F9D1DAF42372D8F34D
:10B3D0008EC0F9B18696F70ADFF330FD08A282101D
:10B3E000F0DDF382C0DCF2B9A3DFF4B18CF3AFC1BE
:10B3F000C3AF8FB49D3EFD1EB59F30A639D9F4234F
:10B40000E1D8F7B8B0B4A7849D1AF9D9F423D4D8F9
:10B41000F1B9B1B5A6839B61D9F423E7D8F6B8B0EA
:10B42000B4A784945AF8F9D1DAF0E2F1B9ABDED8D6
:10B43000F2B186B9AFC3C5C7B8B0B4A7889CF76AE4
:10B44000F9D9FFD872B9ABF1DFF762F3F8F9D1DAC5
:10B45000F1DEF8D8F7BBAF7A9D669E769F76F1A1B4
:10B46000DFBAA6D0DEBBF3A0F9DAFFD8B380C4AF51
:10B47000D0FAF9D1DABCBCBCF425AFD8F1B8BEBE65
:10B48000AED0DEB084BABEA7C1F788B49D6EF9B263
:10B49000BCBCBCBDBDBDDAF42484D8F1B8BEBEBE10
:10B4A000AED091FCC000DBB695FCC104D9F8F8F829
:10B4B000F8D8B491FCC004DBB695FCC100D9F8F80B
:10B4C000F8F8F8F8F8F8D8BABEF424EBD8F191FC03
:10B4D000C000DBB695FCC104F58795A73AF1F9D910
:10B4E000AFDE8FBEBEA1F4C1F1A2F4C1F1BEBED8E1
:10B4F000B491FCC004DBB695FCC100D9AFDEF8FD09
:10B50000078F9510DFF8F8F8A7DEF8FD07DFF8FDE4
:10B5100006DFF8FD048F97AFD0DE404850DFF860BB
:10B520008FBEBEA0D0F4C1F1A1F4C2C5F1A2F4C790
:10B53000F1BEBED8F1B081A5C1BC84B8BEBEA9C160
:10B54000F788B4BD9D6EF9BCBDDAF42538D8F1A9F1
:10B55000DEF8FD04DFF8FD05BC8EBEAED09AFCC05F
:10B5600000DB9BFCC004D99940D89AFCC004DB9B4B
:10B57000FCC000D99948D8BCBCBCBEBEBEF425A254
:10B58000D8F19AFCC000DB9BFCC004F589A932F914
:10B59000D9F1DEF8FD02DFF8FD07DFF8FD07F8DF7F
:10B5A00089BAA0F4C0F18BA1D0F4C3F189A2F4C28E
:10B5B000C5C7F1A3F4C7F1B8D89AFCC004DB9BFC63
:10B5C000C000D9A9DEF8FD02DFF8FD07DFF8FD07AE
:10B5D000F8DFF8FD04F989BAA0F4C0F18BA1D0F42A
:10B5E000C3F189A2F4C2C5C7F1B8D8F18AABC0BC17
:10B5F000BCBDBDBDBEBEBED8F1B280BAA7C4BCB290
:10B600008BF4756A8FB69CF47576AFF4757C8BF409
:10B61000756A8EB69DF47576AEF4757CB381F4755B
:10B620006A8594F47576BBA5F4757C80BAF4756A66
:10B63000B38E9BF47576BBAEF4757CB383A3F475BF
:10B6400088F1B28FB69FBEBEB9AF7A8E9E7EF5B33B
:10B6500085B7957C8E9E7CF1BCBCBDBDB1B58F9F7E
:10B66000AFD05882AF012D5586AF424E7682A200F0
:10B670002C5484BDB690AF51BDBDBDB59F06A4D0BE
:10B68000488FAFD00A8474A4D03E8093AF39D1AB39
:10B69000D9FADADFD8BAADFA839BA769DBB28DB6E7
:10B6A0009D69F42662D8F1ADDEDFD8F0BCB281BD71
:10B6B000B691BBA63C110C582C50F1BCBCBCB38657
:10B6C000BDBDBDB796A62C547C9B7197A5D02AF022
:10B6D0005078F1D8B8ACDEF8F5B08CB79306F1F934
:10B6E000AFDAF8D9DED8B3B6BA86A7C2F4759093AC
:10B6F000F07171608492F47576F1A4F4757C83A383
:10B70000F47588B386A7C4F4759095F0717160865E
:10B7100092F47576A6F4757C85A5F47588B386A732
:10B72000C6F475909FF07171608892F47576A8F4F4
:10B73000757C8FAFF47588F5B28494B9AF7C86962A
:10B740007C88987CF1B18FB59FA5308518F09A3C24
:10B750009918F1BCBCB284B9AFC3C5C7BAB6BCBCFA
:10B76000A78BB59F2D557DF5A787B6972C547CF0F8
:10B77000AC819C0C97289C1497309C1C9738F1B195
:10B780008FABC3C5C7A7B2819C59DB51AADEF42792
:10B790005FD8F1ACB18E9C48FD02B28B02AADEA745
:10B7A0008C11DB19DAAAF8D8F1B5BDBD9BFCC10339
:10B7B000BDBDD9F428DFD8F1B2BCBC84B8BEAEC3DD
:10B7C000C5C7B0BCBCBCB4BDF08A9EAF6C99618AE1
:10B7D000199E7499698A399E7C99718A59F18F9F53
:10B7E000AA28FD0154FD017CFD018EA9C2C5C7F048
:10B7F0008A9AA7042850F18797AF098FB5BDBDBDC0
:10B800009B1EB4BD97A7208BBAA7C1C3C5BDB69078
:10B81000FCC200BDBDBDD9F4286CD8F1B286B69784
:10B82000A74A99F475969AF475768AAAF47588F100
:10B830008697A7529BF475969CF475768CACF4753C
:10B8400088F18697A75A9DF475969EF475768EAE0C
:10B85000F47588F189A9C2C5C787C38BABC2C5C7B8
:10B8600087C58DADC2C5C787C7B8AEDE8AB49E6432
:10B87000FD018C64FD018E64FD01B0F08D9EAF6C06
:10B880009C618D199E749C698D399E7C9C718D592B
:10B89000F18F9FAD28FD0154FD017CFD018EACC2EE
:10B8A000C5C7F08D9DA8042850F18898AF098F9BDB
:10B8B0001E98A820D8F1B8B1B4BCBCBC84AFC7876F
:10B8C000C1B383C1BCB08F9FAF49DAF4289CD8F5CF
:10B8D000917AF19FFCC003DB90FCC000D9A1DEF897
:10B8E000D8F428ACD8F59172F19FFCC003D9A1DE41
:10B8F000DFA0DEDFD8F1A1F8F9D1A0DAF8D9FAD8C3
:10B900008090AF11DBA1DE91FCC104D9A1F8DFA0CA
:10B91000DED88090AF39D9A0DEDFA1DFD8F1BCBC82
:10B92000BCBDBDBDBEBEBED8F1B1B5B9A6F88ABB1F
:10B93000A4C3A0C5B98696AF21D9F43026D8F1A604
:10B94000DEA1DEDFDFA0DEDFDFDFABDEACDEB38C6F
:10B95000BBA4D0C4A0D0C6B8BEBEBE83A9C1F2BC31
:10B96000BC82C381C5F8F1B0BCBDBD9BFCC103B4B2
:10B97000BDD9F42979D8F1AADE99FCC100D9AAFA77
:10B98000DB8A9AA939AADEF8D8F5A289923AF1920F
:10B99000FCC003DADFD9FAA282DB31DFAADEF8D8F5
:10B9A00099FCC103D9AADFD8F28999A971DBDE41DC
:10B9B000F1AADEF8D89AFCC004DBA8DE98FCC1002E
:10B9C000F8D8F1B1BCB5BDB9BE8794AF19D983A180
:10B9D000C6F42C6FD8F1829FAFDF28FD03DF30FD66
:10B9E000048F9F3482381DA9DED9F8DAF42AE0D812
:10B9F000F18297AF51D983A0C783A7D0C2F42A118F
:10BA0000D8F18292AF59DAF42A11D8F5B383B799F5
:10BA10001AF1F8F9D1DAB1B5F42A11D8F53AF1F8FA
:10BA2000F9D1DAB1B5F42A11D8F1B0BCBCBC88AFF9
:10BA3000C1F289C5C7F9F9B1BCB5B9F28F9FAF7131
:10BA4000D9F183A0C6B38CBBA4D0C4A0D0C6B1B971
:10BA5000D8F183ACC683A7D0C4D8F1BCBC81AFC336
:10BA6000F38BC3F2B382C281C5F9F1B1BCBC839F31
:10BA7000AF09DB8F9E3183A1C7A0DFD0DE9FFCC260
:10BA800001D9F2AFDEF8F8F88FDB41D9F18EB7912A
:10BA9000BBA2D05CFD3FB5B9D88F93AF21DB83A0AB
:10BAA000C7D0DEA1DF9FFCC201D9F2AFDEF8F8F803
:10BAB0008FDB41D9F18EB791BBA2D05CFD3FB5B908
:10BAC000D8F19FFCC201D9F42AAFD8F3BCBCAFD0E7
:10BAD000B18CC4F1B0BC8AAFC5B1BC8093AF39D1D1
:10BAE000D9F3D0F8F9DBD1F19FFCC104F28F9FAFFD
:10BAF00059F1A0DF83D0C6D8F1A1D0DE8390AF6921
:10BB0000DB9169F42AC9D8F28F9F71D9F183A1D052
:10BB1000C6D8F18093AF19D1D9F42B4FD8F179D190
:10BB2000D9F42B4FD8F42CB0D8F1829DAF31DAF490
:10BB30002B11D8F183A0D0C7B69DFCC204D9BAADF1
:10BB4000DEF8D8B38AB792BBAF19B188A4D9C5A023
:10BB5000C7DAC1A0C3D8F42B4FD8F1A1F8F9D1DAD4
:10BB6000F42B4FD8F1BAADF8F9D1D983B9A0C6AB4F
:10BB7000C6B38DBBA4D0C4A0D0C6F42B4FD8F183DC
:10BB8000B9A0D0C7B38AB792BBAF19B1A4D989C342
:10BB9000A0C5DA88C1A0C3D8F1B185BABEAFC2844E
:10BBA000C782C1C3B2BCB6BDA7DFDF8F92A701D9E0
:10BBB000F42B91D8F109D9F42B78D8F1FAF42BC0F1
:10BBC000D8F151D9F42B85D8F1FAF42BC0D8F1195A
:10BBD000D9D0F8DAFAD8F42BC0D8F19321D9F42BC4
:10BBE000A5D8F109D9D0F8DAFAD8F42BC0D8F17178
:10BBF000D9D0F8F42BC0D8F159D9D0F8F42BC0D84B
:10BC0000F19401D9D0F8DAFAD8F1B0BCBC88A7C059
:10BC1000B1BC89D0C182AFD0C5B2BCB5BD9BFCC19F
:10BC200000B6BDBDBDDB97FCC304FCC000FCC20474
:10BC3000D9A7DFF8DFD8F18F94A771D9F42C09D8F0
:10BC4000F19541D9F42C09D8F19409DB39D9DFDF1A
:10BC5000F8D8F197FCC104B1BCBCBC83B9BEBEBE70
:10BC6000A0D9C6DADED8FCC204D0D9C7DADFD88EB4
:10BC7000B5BD9BAF4CBDBD9FFCC100D9F42CB0D865
:10BC8000F0B386B69ABBAB2C5078F1BAAAC3C5C73D
:10BC9000B8ADF8F9D1DADEB38EBBABC7D8B38EB787
:10BCA0009BBAA769D9B183B59079DBD1B9A0D0DFB0
:10BCB000A1D0C6D8F42CB0D8F1B0BC81B9AFC0B017
:10BCC00088C187C1B1BCBCBCB5BDBD9BFCC100BDBA
:10BCD000BDDB9FFCC0048F9E2D8D9F31D9A1DE83DB
:10BCE000A0C6AFDEF8B3839FF506F1DBFCC104D933
:10BCF000B8BEA1DFF8BEBEBED8F5B389B793BBA965
:10BD0000668BAF02F19FFCC003D98FA9D0C0D88940
:10BD100099A334AFDEF8F5839F06F1FCC104DB95EF
:10BD200071A2D0DED8B08DB9A1D0C78FB49FAF11AA
:10BD3000D9A1D0C7D8F1B389BBAFC6F9F58FB793F6
:10BD400006F19FFCC103DB83A9C0D8A3DEB9A0D054
:10BD5000DEBAAAF8F9D1DAF42D83D8F1B9B1B5AFCA
:10BD6000839061DB69799169F42D7AD8F1DFF8A0CD
:10BD7000FAF9D1D9AFDFD8AF8C9569D9DFD8AF85C3
:10BD80009C31DB9FFCC100DAF42D57D8F183A0D0A1
:10BD9000C6AF8A9E11F8D9A0D0809C48D8AADED818
:10BDA000F1B385B795AF71B1B5D9A0D0DED8F18325
:10BDB000AFC6F88F941DDB90FCC000A0D0DED8F495
:10BDC0002D83D8F161D1AAD9DEDAF8D8F1B188BBD8
:10BDD000A4D0C5A0D0C7B590FCC200D9B28EC6A46D
:10BDE000D0C5BAAEDEF42DB2D8F184B49FBAA7693B
:10BDF000DAAEF8F42DB2D8F1AEDED8F1B181B59E4D
:10BE0000BBAF02B79426B381B59DA102B790268F30
:10BE100091A1002CB18094AF12265E6EB38092A2E5
:10BE2000420E763E8FA2002C547CAFDEF8F58F993F
:10BE3000AF06F19FFCC103D98AAAC4D88392AF513F
:10BE4000D9F42E40D8F1A2D0DEB69EFCC009DBFCAE
:10BE5000C10AD9B8AEDEBAAEDEFAB7BBF42E40D80E
:10BE6000F1B8AEDEF8BAAEDFF3BCBCBDBDBEBEB04D
:10BE7000B4BBAFFBDAB8A4D08D941DF1E2D8F1BC0D
:10BE8000BCBDBDBEBEB3B7BBD8F18A92AF19D9F461
:10BE90002E84D8F3BCBCB18BC3BCBCB3F8F9D1D9E8
:10BEA000F42E72D8F18E9141D9F42E72D8F1899383
:10BEB000A3C66081A2D0C7F42EFFD8F1A3DEF8F8A4
:10BEC000F8F8F8F8F8F88BAAC6F42EFFD8F181AA92
:10BED000C69A6060B181B593AF59B3B7D1D9F42E8A
:10BEE000FFD8F18A92AF21DAA3F8ADDED881AAC5D6
:10BEF0008591AF21D9F42EDAD8F1A1DFA2DFDF815D
:10BF000095A5C7688993A3C660ADF8AFDEF8F5893B
:10BF10009F06F1FCC103DB8D9DAF21A3DEF8D8F4B1
:10BF20002EFFD8F181A5C592AF49DAA3F8F8D891D0
:10BF3000AF49DAA3F8F8F8F8D8F1A3F8F9D1D9B1F4
:10BF400083B9A1D0C6B3BBD8F5839AAF1AF1BEB8F6
:10BF5000AEC189B59E74FD3FBCBCB18B34B79FFCAC
:10BF6000C000BCBCBCB0BDB4D9F42F59D8F1A6F800
:10BF70008696AE11D9A6DF88BEBBA9D0C4F2A1D0E7
:10BF8000C6A2D0C6BEBEBEDBF19EFCC301D9F2BEC6
:10BF9000A1D0F8F8F8A2D0F8F8F8BEBEBED8F42FB9
:10BFA00097D8F19EFCC301D9F58EAE32F1DBFCC00F
:10BFB0000188BEBBA9D0C4F2A1D0C6A2D0C6BEBE65
:10BFC000BEF42F97D8F1A6FA8696AE39D9A6DE87A9
:10BFD000BEBBA9D0C4F2A1D0C6A2D0C6BEBEBED838
:10BFE000F1BCBCBCB3BDBDBDB7BEBEBEBBA5F8F900
:10BFF000D1DA86A7C3C5C7A5DE85A5D0C6D88595E5
:10C00000AF71DAF42FD7D8F18993A360F3BEBEAF36
:10C01000F8F9D1DAF3E2D8F1BEBE86A7C3C5C7D816
:10C02000F1AFDFF9899F2D830DF599AF1A8F7E9FB0
:10C03000A812992EF1DFDFAFDFF9899F4D830DF54F
:10C040009BAF028F66F19FFCC003D9F5A8D012996F
:10C0500036D8F18898A610A738869FAFDE00FD0875
:10C0600087008FF3AEC0F1BCBCB182C3BCBCD8F3B7
:10C07000BCBCBDBDBEBEBBB3B7A2F8F2F8F1809D9B
:10C08000ADD07CF2A2FAF9D1F1B9ACD9DEDAF8D8A8
:10C09000F5BEBEBAA78595788E9E7CBCBCBDBDB2F0
:10C0A000B6F1A9899962F09740996C9748B9B1B5F2
:10C0B000F1AF8091288C9F008365D9F43089D8F145
:10C0C0009DFCC304AFB289D9C3C1DAC1C3D8F4752A
:10C0D0004AD8F2BEBEBCBCBDBDB9B3B7A6819249B9
:10C0E000F9DBF1B18CB59C21D9F5B385B795788E84
:10C0F0009E7CF1B18DB59DAD1AF096409D3C964861
:10C10000D8F1B181B59DB9A60A8D9605D9F430F064
:10C11000D8F2B381B792BBAF49F9F9DBF1B18CB575
:10C120009CB9A621F430F0D8F1B38EBBA8D0C4C717
:10C13000F3B9ACD0DEF43101D8F1B385BBA8D0C4DB
:10C14000C7F3B9ACD0DEF8DFF8D8F3B59CFCC30474
:10C15000DBFCC200D9F2ACD0DED8F2BBAFB792B3F1
:10C160008219DBA2DFA1D0C4ACD0C5F3A7D0DFF128
:10C17000B9AADEA1DFB59BFCC100B8BEA7D0DEBE68
:10C18000BEBED8F1BBAF89B79819A980D938D8AF4E
:10C190008939A980DA3CD8A1F8F9D1DAF9DFF8F4C5
:10C1A0007532F1FFD8AF2E88F575DAFFD871DAF164
:10C1B000FFD882A7F3C1F280C2F19786492EA6D09C
:10C1C000509686AF75D988A2D0F3C0C3F1DA8F96A6
:10C1D000A2D0F3C2C382B69B7070F1D8B7AFDFF9BB
:10C1E0008999AF10809F21DA2ED88999AF31DADF93
:10C1F000D8AF8292F341D9F1DFD8AF82F319D9F1E8
:10C20000DFD8F18990AFD0098F99AF51DB8931F335
:10C21000829219F2B18CB59C71D9F1DFF9F2B9AC07
:10C22000D0F8F8F3DFD8B3B7BB82ACF3C0A280225A
:10C23000F1A922269FAF29DAACDEFFD8A2F2DEF107
:10C24000A9DFF282B8BEA9C381C5B0BCF1B59BFC21
:10C25000C103B4BDD9F43228D8F28999A949DAF4D6
:10C260003228D8F19AFCC004A7D0D9889730DADEFA
:10C27000D8F1BCB180BBBEBEBEAFC28CC181C3838E
:10C28000C7BCBCB38FB7BDBDBD9FBAA761DB697129
:10C29000FFD8F1BBADD0DEF8B184B696BAA7D07E98
:10C2A000B796A701B2879D05DBB38DB69779F3B139
:10C2B0008C9649F1BBADD0F8D8F3B9ACD0F8F9D130
:10C2C000D9F1BBADD0F8D8B3B7BB978CAFF379D960
:10C2D000F4329BD8F1A1819D34AAD08A50F47532F2
:10C2E000F432BBD8F3A7D0FAB59CFCC207D9F8D872
:10C2F000B7978CAF79DAF18791A16CAAD09A70BB0D
:10C30000F47532D8F191FCC10AD9F432FCD8F1812C
:10C31000A1C2F9DFF8809DBAA6D038FD31BBAFDEEF
:10C32000F382CEF18F9008FD0F8D9F65D9F432FC1A
:10C33000D8F1AFDEF28CCEF2829F25D9F1BAA6D029
:10C34000DEF38DCED8F1B59BFCC103D9BCBDBEF4E4
:10C350003330D8F1B8BEAAD0DEF2B381B792A94982
:10C36000D9BCBDF43330D8F1BCBDB0B48D9731F930
:10C37000F9F9F9F9D9AAD0F8D8F1BCBCBDBDBEBE57
:10C38000B084B8A5C3C5C783A4C3C5C7F0B281B67E
:10C3900091A33C110C582C50F1B083B493A32C54AE
:10C3A0007C9271F095AE2C50788EBEB9AAC2BCBDFD
:10C3B000D8F2BBB3B78291AF31DAF433D4D8F18D70
:10C3C000B796BBA640AC8C9C0C30BA8D9DA739DBD0
:10C3D000F3B18CB69649D9F184B594B9A4D05EF086
:10C3E000B79D38D8F1B38DBAA7C6B59CFCC204D9A5
:10C3F000B181B697A7258B6E81B9A134DAB287B621
:10C400009700FD3EB181258B4E81B9A134D8F1BB97
:10C41000AAD0DFACDED0DEADD0DFF1FFD8F2B3B70B
:10C42000AF829C39DBF1869009AAD08A9DD974F439
:10C4300033EFDAF1AAD0DFD8F3B9ACD0F8F9D1D91B
:10C44000F2BBA2FAF8DAF2BBA2FAD8F2B382B69B38
:10C45000BBAF31DBF189B59A61D9F2A1D0F8F8D838
:10C46000F282AFC4F8F8F8F88FB79115DAA1D0C00E
:10C47000D882AFC2F9D1D9F1B9ACDEADDEDFB9A156
:10C48000DFBBADD0DFD8F28291AF31DAF1B1819D5F
:10C49000B9A13CD8F2B3BB8291AF31D1D9F1B1810E
:10C4A000B59BB9A13ED8F1B38CB79CBBACD010AC56
:10C4B000DEADD0DF9282AFF1CAF29135F1968FA650
:10C4C000D900DBAF8A906DD9A68F96018A60AAD079
:10C4D000DFF281ACD0C5D8F1FFD8F0B9B1B6AF8DDD
:10C4E000924C7154685C604479E0D8F1BAB1A48F81
:10C4F000C0C3C5C7B9B5F1AA829025F3ADDFD9F89D
:10C50000F8D8F1A18191F0348238F1AA2DF58A9002
:10C5100030D9F3ADFAD8F0AA8F9F042851791D3095
:10C520001438BCBCBCA2D08A9A2C50507878BC82FB
:10C5300090AAF57CF3D9ADFAD8F1B8AE82C6B9A10C
:10C5400081900A819218A2D081C1F3ADFBF9F1DA92
:10C55000A2D0DFD8A2D0FAF9D1DAAA829D7E76AD38
:10C560008AD0315CF0AA8D9D5478FD7FF18A925576
:10C570009DADD0727ED8F47491E0D8F1B1B982A2A9
:10C58000D0C2F2A3FAF3B8A7F8F9D1DAF2E2D8BB35
:10C59000B3E0F1B1AF8F9F3185A5D0DAC6F435672E
:10C5A000D8F1F8F9D1D9C6F5ADD08D9E7FDAF9D89A
:10C5B000F1E0F1B697A766B793F0717160E0F00112
:10C5C000295179E0F1C2C5C7B287B6972CFD01E0C9
:10C5D000F1C2C5C7B287C1E0F1B2819766E0F03819
:10C5E00010284088E0F02470594469386448312D9F
:10C5F0005179E0F024583D4034492D51E0F187A1B4
:10C60000002C547CF081A704285078FD7FF1A78787
:10C61000965991A1020E161EE0D8F0BEBEBEBCBC5B
:10C62000BCBDBDBDB3BB8CACF4784E8DADF4784EC3
:10C630008EAEF4784EBCB080BAAFF1DEDFDFD0F260
:10C64000C2CBC5BCBCBCB28FD0BDB59EF102FD0350
:10C6500026FD0346FD03BDBDBDB590BBAF02F0286E
:10C6600050F11E91F02048F116F0389240B3B78F88
:10C67000F2ACC0ADC2AEC4F1A9FAF9D1D9F4363FDB
:10C68000D8F1A9FAF43811D8F0B78C9CBAF4781D17
:10C69000F1C1B38D9DBAF4781DF11CB38E9EBAF42E
:10C6A000781DF11CB38FD7FD3EF28DC18EC1F18F85
:10C6B000D5FD30D4D0FD70F1D02AD2F000D2A9DE61
:10C6C0008FB597AFF540D9F2A9F8D897AFF548D90B
:10C6D000F3A9F8D8F2AFDEF8D4FD0CB78F9D05DAD8
:10C6E000F436B8D8F2B597DEF8D037FD0E3FFD0E20
:10C6F0008DB79FD005D9A9F8D8AF0DD9A9F3F8D82F
:10C70000D8F2AFDEF8D4FD0C8F9E05DAF436E3D80C
:10C71000F2B597DEF8D037FD0E3FFD0E8EB79FD0F5
:10C7200005D9A9F8D8AF0DD9A9F3F8D8F18CAFDEA7
:10C73000F2C08FF0D4FD309FF500B18804D9A9F282
:10C74000F8D8F5AF24D9A9F3F8D8F0AFB389C4C7A6
:10C750008FD0D4FD40D5FD40B188D0F544D9A9F2A1
:10C76000F8D8AFF56CD9A9F3F8D8B38FB599F5AF70
:10C7700060D9AAF8F4373AD8F1B18AB79FAF59D93E
:10C78000AADED8F5B38FB599AF68D9AAFADAAADFCD
:10C79000D8F18AAFD4FD00D5FD408FD0F514A9D0D3
:10C7A000D9DEDAF8D8AF3CA9D0D9DFDAFAD8F18AE5
:10C7B000AFD6FD00D7FD408F9AD0F504A9D9F2F885
:10C7C000D8AFF52CA9D9F3F8D88CAFF2C0F18FD43B
:10C7D000FD30B79F02FD1ED010AFDEF8F8F8F8F874
:10C7E000F8BDBDBD93F502F1BDF8F9D1DAF437B269
:10C7F000D8F1B18A9F59DAF437C8D8F1B18B9FAF1D
:10C8000051DAF437C8D8F1B59BB38F41D9A9F2F802
:10C81000D8F1AFB79FB18A79DAF437E7D8F18B71E5
:10C82000DAF437E7D8F1B59BB38F49D9A9F3F8D833
:10C83000F0A9F2F9F9F9F9F9F9F9AAD0F0DADEF587
:10C84000E2F0D9F8D8A9F3F9F9F9F9F9F9F9AAD088
:10C85000F0DADFF6E2F0D9FAD8D8F0BCB080BDB497
:10C8600090BEB8A0E0F0AFF2113DF3153DF2B28FEB
:10C87000D0CDCFF3DFDFDFDFF1D4FD70D5FD70D693
:10C88000FD70D7FD70B69F0C1018F500B596F51821
:10C89000BBAFD0B79FE0F0D0F3CFF2CCD0F3CDF266
:10C8A000CAD0F3CBF2C8D0F3C9E0000030B5A3B0D2
:10C8B00007A8182103F0E6FC01A8182103F0E2FC08
:10C8C0000DA800F0CCF8002805D00FF2F4010220EA
:10C8D00002F085FD2DE0002408E00DA800EB8400A7
:10C8E00003F075FC01A941F82400641C062CF4DB5C
:10C8F000324C1820009001AB032204216068FBF742
:10C90000B2FDFBF7F2FF002509E00DA800EB850062
:10C91000183003F05CFC07A941F825006D1C062DBA
:10C92000F3DB1820009007AB032201216068FBF7BE
:10C930009AFD23B030BD30B5A3B007A8182103F08D
:10C94000A1FC01A8182103F09DFC0DA8542103F0BF
:10C9500099FC1A4C1820009007AB03220421606850
:10C96000FBF7A6FDFBF7C1FF002508E00DA800EBD3
:10C97000850107A850F8250003F01BFC6D1C062D4F
:10C98000F4DB1820009001AB032201216068FBF763
:10C990008FFDFBF7AAFF002409E000EB840000F103
:10C9A000180101A850F8240003F003FC641C062CB5
:10C9B0000DA8F2DB00F071F823B030BD70950020B7
:10C9C0004E6F20626961732076616C7565732072A9
:10C9D00065747269657665642066726F6D204E5667
:10C9E000206D656D6F7279202100000080B50346CF
:10C9F0000FF20C0003F04AFCBDE8014003F058BC04
:10CA000025733A2564202573202D2D2061737365CD
:10CA10007274696F6E206661696C65640A0000005B
:10CA20003B490A6800E058324B68583B934206D3B2
:10CA3000136813F1010FF6D1026000207047022045
:10CA4000704780B5F32003F09AFC0021082003F022
:10CA500046FC092801D0032002BD002002BD30B4ED
:10CA600000212B4A53682B4D00E05B1E14689C424A
:10CA70000DD21C68AC42F8D1543B03E01C788454BE
:10CA80005B1C491CC9B20A46542AF7DB012108463F
:10CA9000401E8041C00F30BC704738B504461C4D65
:10CAA0002868009003F008FC6846FFF7B9FF0228E9
:10CAB00003D1FFF7C6FF28680090002509E0615DFB
:10CAC000009803F042FC092815D10098401C009002
:10CAD0006D1C542DF3D3002503E00098401C0090FA
:10CAE0006D1C042D0BD20FF23400415D009803F051
:10CAF0002CFC0928F1D003F0EBFB042032BD03F03D
:10CB0000E7FB002032BD0248704703487047000031
:10CB1000CCD900200A0B0B0AD0D900200A0B0B0A33
:10CB20001949084319490860704770B403781A46D8
:10CB3000012190F90340002C1CD0144B1B6803F416
:10CB4000E063C3F5E0631B0A4478C3F10405AC401D
:10CB500085780F261E4106EA050323431B010C4C72
:10CB6000A354007800F01F0291400A4A401142F895
:10CB7000201007E003F01F0001FA00F006495211EF
:10CB800041F8220070BC70470000FA050CED00E08F
:10CB900000E400E000E100E080E100E01C48006803
:10CBA00000214162012103F05FBC002118480068A8
:10CBB00003F05ABC10B4164909684A6A92B20023BD
:10CBC0004C6A9C4202D204F57F44FF342346A41AE7
:10CBD000A042F5D210BC704780B5002808D14FF0B4
:10CBE00080410B4A11600B4902F0F7F8002002BDAA
:10CBF000012803D10849064A1160F4E7022803D14D
:10CC00000649034A1160EEE74FF0FF3002BD000015
:10CC1000E0D9002040420F0000040040000800401E
:10CC200070B50446FFF7BAFF4FF6FF75AC4211D35B
:10CC3000002603E02846FFF7BDFF761C2846B4FB1C
:10CC4000F0F08642F6D3C0EB0040201A80B2FFF726
:10CC5000B1FF03E0204680B2FFF7ACFFBDE87040B3
:10CC6000A3E78268521C8260426832B10268531C9A
:10CC7000036011704168491E4160704710B504009F
:10CC800006D151220FF24C010FF2001000F006FF06
:10CC90002089E188884205D1E07AA17A884201D0D2
:10CCA000012010BD002010BD10B5040006D15B228C
:10CCB0000FF220010FF2D40000F0F0FE2089E1888D
:10CCC000884205D1E07AA17A884201D1012010BDC5
:10CCD000002010BD433A5C52454C4541534520432A
:10CCE0004F44455C49434D32303634385C6E756391
:10CCF0006C656F5C49434D32303934385F654D4463
:10CD00005F6E75636C656F5F312E305C696E766E39
:10CD10005C6669726D776172655C656D642D6D63CB
:10CD2000755C6E75636C656F5C69636D3230393448
:10CD3000385C6961722D636D342D6670755C312EBF
:10CD4000302E305C736F75726365735C6578616DEE
:10CD5000706C65735C6578616D706C652D69636D71
:10CD600032303934382F2E2E2F2E2E5C496E766EAF
:10CD70002F456D625574696C732F52696E674279E5
:10CD800074654275666665722E68000073656C6630
:10CD9000000000000021020002D1DFF8FC1B08E0C7
:10CDA000012802D1DFF8F41B03E0022801D1DFF8EB
:10CDB000741C08467047DFF8E00BC06E70472DE921
:10CDC000F04104460E4617461D46FFF7E3FFDDF827
:10CDD0001C80406C001DC8F80400C8F800604020AA
:10CDE000C8F80C000121384603F0C1FB4146284633
:10CDF00003F0ECFB0899069808700846FFF795FECB
:10CE000001221021284603F036FC2046FFF7C2FF1E
:10CE1000002180F850102046FFF7BCFF0563BDE8F5
:10CE2000F08130B593B00446FFF7B4FF0546DFF854
:10CE3000680B416E8DF80D10806E8DF80E0001208C
:10CE40008DF80F0004A803F0E8FB00200F9010906D
:10CE500011900C904FF480600A9000200D90129079
:10CE60000B9009904FF400300E90204601281CD101
:10CE7000DFF8B40BE862011D69630C30A863DFF8CA
:10CE8000AC0BE863DFF8A80B286403A8029004A8A1
:10CE9000019011200090DFF89C3B4FF400124FF0FE
:10CEA00000612046FFF78BFF3CE002281CD1DFF831
:10CEB000880BE862011D69630C30A863DFF86C0B16
:10CEC000E863DFF86C0B286403A8029004A80190C3
:10CED00045200090DFF8643B4FF480024FF0206162
:10CEE0002046FFF76CFF1DE0002C1BD1DFF8480B3C
:10CEF000E862011D69630C30A863DFF8440BE86346
:10CF00004FF02050286403A8029004A80190462006
:10CF10000090DFF8303B4FF480024FF000610020BA
:10CF2000FFF74DFFDFF8200B4FF4024101440022D0
:10CF30008A80CA8048F2086202440023138053802A
:10CF40001A4648F208240DE0CB8803F0FF0300EBFB
:10CF5000830302EB821500EB45051D51CB885B1C5A
:10CF6000CB80521CFF2AEFD90020086013B030BDDF
:10CF70002DE9F843894617461C46FFF70BFF054687
:10CF800005F11006DDF82480706B001DC8F8040060
:10CF9000C8F800900020C8F80C000121384603F0C2
:10CFA000E6FA4146204603F011FB0A9908980870FA
:10CFB0000846FFF7BAFD01221421204603F05BFB6F
:10CFC000346001226021706B03F024FC01224021B7
:10CFD000706B03F015FC002085F85100BDE8F1836B
:10CFE00030B593B00446FFF7D5FE0546DFF8A80933
:10CFF000416E8DF80D10806E8DF80E0001208DF8B9
:10D000000F0004A803F009FB00200F90109011906E
:10D010000C904FF480600A9000200D9012900B90BD
:10D0200009904FF400300E902046012822D1DFF8FD
:10D03000F809E860011D69610C30A861DFF8000A99
:10D04000E8614FF020502862DFF8000A68624FF074
:10D050000850A86203A8029004A801902F20009015
:10D06000DFF8EC394FF400124FF040612046FFF733
:10D070007FFF47E0022821D1DFF8BC09E860686142
:10D080000830A861DFF8CC09E8614FF081502862D0
:10D09000DFF8C4096862DFF8C409A86203A8029037
:10D0A00004A801903A200090DFF8B4394FF48002D0
:10D0B0004FF020612046FFF75BFF23E0002C21D1D9
:10D0C000DFF87409E860011D69610C30A861DFF8C0
:10D0D0009409E861DFF890092862DFF89009686236
:10D0E000DFF88C09A86203A8029004A801904420EC
:10D0F0000090DFF880394FF480024FF0006100208B
:10D10000FFF736FFDFF870094FF402610144002297
:10D110008A80CA8000F668020023138053801A4672
:10D120000EE0CB8803F00F0300EB830302EB8214C5
:10D1300000EB4404C3F82848CB885B1CCB80521C0E
:10D14000102AEED30020086013B030BD2DE9F0475F
:10D1500088B0044694F90000FFF71CFE054694F9D8
:10D160000100002805D0208A002802D1608A00280A
:10D1700007D094F90400002806D094F90300002891
:10D1800002D14FF0FF3088E102208DF804008DF8C5
:10D19000050000208DF8060001208DF80700606969
:10D1A000039000200490ADF81400ADF818000C2096
:10D1B000ADF81600DFF8E067706E8DF80900B06E0C
:10D1C0008DF80A0001208DF80B0094F90100002869
:10D1D00008D0A0696865E069A865206AE865606AAA
:10D1E000286604E000206865A865E865286694F96B
:10D1F0000000014601295FD1DFF8A09794F90100F2
:10D20000C9F80000207989F80800DFF87078C9F8BB
:10D2100044700020C9F8040006F18808628AE168B9
:10D22000404603F03FFB06F1940A228AA16850466B
:10D2300003F038FBC9F84C80C9F848A00121084622
:10D2400003F095F901214FF4003003F09BF9DFF86A
:10D25000308807220221404603F042FC07220321C6
:10D26000404603F03DFC042000906946404603F030
:10D27000F3FB082000906946404603F0EDFBD9F827
:10D280000000002805D026208DF8080002A8FFF72E
:10D290004CFC03A9384603F045FA94F90400002831
:10D2A00005D1012240F22551384603F0B3FA01219D
:10D2B000384603F091FAD9E0022960D1DFF864978B
:10D2C00094F90100C9F80000207989F808000020CD
:10D2D000C9F80400DFF8AC77C9F8447006F1AC086F
:10D2E000628AE168404603F0DDFA06F1A00A228A6C
:10D2F000A168504603F0D6FAC9F84C80C9F848A096
:10D300000121084603F033F90121202003F045F9FB
:10D31000DFF86C8708220B21404603F0E1FB08226E
:10D320000C21404603F0DCFB4FF40060009069469E
:10D33000404603F091FB4FF4805000906946404610
:10D3400003F08AFBD9F80000002805D047208DF8AB
:10D35000080002A8FFF7E9FB03A9384603F0E2F949
:10D3600094F90400002805D1012240F225513846E5
:10D3700003F050FA0121384603F02EFA76E0002837
:10D3800074D194F90100306020793072012070600E
:10D39000DFF8F4767764628AE16806F17C0003F0D6
:10D3A00081FA228AA16806F1700003F07BFA06F187
:10D3B0007C00F06406F17000B0640121084603F0BF
:10D3C000D6F80121102003F0E8F8DFF8B486072230
:10D3D0000921404603F084FB07220A21404603F05E
:10D3E0007FFB07220B21404603F07AFB07220C212A
:10D3F000404603F075FB4FF40070009069464046CC
:10D4000003F02AFB4FF4806000906946404603F029
:10D4100023FB4FF4006000906946404603F01CFB7C
:10D420004FF4805000906946404603F015FB306889
:10D43000002805D025208DF8080002A8FFF775FB0D
:10D440004FF44070ADF8180003A9384603F06AF9AC
:10D4500094F90400002805D1012240F225513846F4
:10D4600003F0D8F90121384603F0B6F994F9020027
:10D47000002801D0686CF06694F90300002803D0FE
:10D4800094F90000FFF7CDFC94F90400002803D0C4
:10D4900094F90000FFF7A4FD002008B0BDE8F08774
:10D4A00070B50C46FFF776FC0546286800281FD0AB
:10D4B00003F02AFBA86CFFF7E1FB002813D12046FC
:10D4C0000146C9B2A86C03F03CFA40F22776314617
:10D4D000686C03F0C3F9002807D101223146686C5B
:10D4E00003F098F901E04FF0FF3403F015FB0AE078
:10D4F0002146C9B2686C03F07BF94021686C03F0E7
:10D50000A6F90028F9D0204670BD38B5FFF742FCD7
:10D5100004462068002810D04FF0FF3503F0F4FADD
:10D52000E06CFFF7C1FB002803D1E06C03F026FAA2
:10D53000054603F0F1FA284632BD2021606C03F065
:10D5400086F9012804D1606CBDE8324003F054B97B
:10D550004FF0FF3032BD10B5FFF71CFC04462068C9
:10D5600000280AD003F0D0FAE06C03F0C6F90446B4
:10D5700003F0D2FA2046C0B210BD002010BD80B525
:10D58000FFF708FC406802BD10B5044603F0BCFA82
:10D59000DFF8B40448F2042101440A884B889A4217
:10D5A00002D14FF0FF340CE00A8802F0FF0200EBDA
:10D5B000820048F20822805820600888401C0880B9
:10D5C000002403F0A9FA204610BD10B5044603F06C
:10D5D0009BFADFF8740448F2042101440A884B885E
:10D5E0009A1A92B2B2F5807F02D14FF0FF340CE06C
:10D5F0004A8802F0FF0200EB820048F2082223680A
:10D6000083504888401C4880002403F085FA204657
:10D6100010BD32B54FF47A74FFF7BCFB054605F137
:10D6200030000099B1F880100268516000990268DA
:10D63000D16001680A6842F001020A6041698A8A81
:10D6400042F080028A8201680968C90702D4214633
:10D650004C1EF8DA002C08D16846FFF7B6FF002010
:10D6600085F850004FF0FF3032BD0098DFF81C14F1
:10D670000860002032BDF8B506460C460025FFF7CD
:10D6800089FB074603F040FA002F20D097F950009D
:10D69000002808D1012087F8500021463046FFF7C6
:10D6A000B8FF054615E097F95000012811D148F25E
:10D6B0000A60DFF894130A5A02F0FF0201EB8202BB
:10D6C00048F20C63D4500A5A521C0A5201E04FF03F
:10D6D000FF3503F021FA2846F2BDF8B50E4617468D
:10D6E0004FF47A742546FFF755FB01690A68D207A3
:10D6F00002D52A46551EF9DA002D02D14FF0FF302F
:10D70000F2BD4F60B6F8801031440269D160B6F8BE
:10D7100080107918A6F88010022180F85110DFF8E7
:10D720005813C1F8206801690A6842F001020A60D2
:10D73000254601690968C90702D429464D1EF8DA51
:10D74000002D05D1002180F851104FF0FF30F2BDBF
:10D750000020F2BD70B50446FFF71CFB05464FF4F0
:10D760007A7603F0D1F90021286902F067FF286971
:10D7700002F06FFF002802D03046461EF7DA002E76
:10D7800002D14FF0FF3070BDE969286902F08DFFCA
:10D79000002802D13046461EF6DA296A286902F0CE
:10D7A0005CFF1021286902F0A3FFB3480021D0F8E4
:10D7B0002028A2F880100122D0F820182046FFF778
:10D7C0008CFF044603F0A8F9204670BD10B504464E
:10D7D000E06CFFF753FA002807D1606C03F00CF8F7
:10D7E0000146C9B2E06C03F0ACF8616D080003D0EB
:10D7F000E06DBDE81040084710BD10B48289008874
:10D8000040F2253340F22554A14201D0994209D17A
:10D8100002F02002994202D100F0080006E000F078
:10D82000200003E002F0800200F08000002A03D014
:10D83000002801D0012000E0002010BC70472DE935
:10D84000FC410546FFF7A6FA044640F2253694F956
:10D850000800002815D03146606CFFF7CEFF606CE1
:10D8600002F0CAFF2846FFF775FF00284DD08DF85B
:10D87000005000200190616D080046D0684688473E
:10D8800043E00027B8463D4603F03EF93146606C60
:10D89000FFF7B3FF002803D001272046FFF796FFCC
:10D8A00040F22551606CFFF7A8FF002804D04FF02C
:10D8B00001082046FFF78AFF40F227763146606C68
:10D8C000FFF79BFF002817D00125A06CFFF7ECF9AC
:10D8D000002807D1A06C03F051F80146606C02F0FB
:10D8E00087FF04E000223146606C02F093FFA16DD7
:10D8F000080001D0206E884748EA0700284302D17B
:10D900002046FFF763FF03F007F9BDE8F38100202D
:10D9100095E7012093E7022091E770B50446FFF7F1
:10D9200039FA343001680968C268114232D041685E
:10D930000A6883681A430A6043494FF402420A4462
